{
  "_format": "hh-sol-artifact-1",
  "contractName": "User",
  "sourceName": "contracts/User.sol",
  "abi": [
    {
      "inputs": [],
      "stateMutability": "nonpayable",
      "type": "constructor"
    },
    {
      "inputs": [
        {
          "internalType": "address",
          "name": "owner",
          "type": "address"
        }
      ],
      "name": "OwnableInvalidOwner",
      "type": "error"
    },
    {
      "inputs": [
        {
          "internalType": "address",
          "name": "account",
          "type": "address"
        }
      ],
      "name": "OwnableUnauthorizedAccount",
      "type": "error"
    },
    {
      "anonymous": false,
      "inputs": [
        {
          "indexed": true,
          "internalType": "address",
          "name": "admin",
          "type": "address"
        },
        {
          "indexed": false,
          "internalType": "bool",
          "name": "added",
          "type": "bool"
        }
      ],
      "name": "AdminSet",
      "type": "event"
    },
    {
      "anonymous": false,
      "inputs": [
        {
          "indexed": true,
          "internalType": "address",
          "name": "previousOwner",
          "type": "address"
        },
        {
          "indexed": true,
          "internalType": "address",
          "name": "newOwner",
          "type": "address"
        }
      ],
      "name": "OwnershipTransferred",
      "type": "event"
    },
    {
      "anonymous": false,
      "inputs": [
        {
          "indexed": true,
          "internalType": "address",
          "name": "wallet",
          "type": "address"
        }
      ],
      "name": "ProfileUpdated",
      "type": "event"
    },
    {
      "anonymous": false,
      "inputs": [
        {
          "indexed": true,
          "internalType": "address",
          "name": "wallet",
          "type": "address"
        },
        {
          "indexed": false,
          "internalType": "uint256",
          "name": "userId",
          "type": "uint256"
        }
      ],
      "name": "Registered",
      "type": "event"
    },
    {
      "anonymous": false,
      "inputs": [
        {
          "indexed": true,
          "internalType": "address",
          "name": "wallet",
          "type": "address"
        },
        {
          "indexed": false,
          "internalType": "bool",
          "name": "verified",
          "type": "bool"
        }
      ],
      "name": "VerifiedSet",
      "type": "event"
    },
    {
      "inputs": [
        {
          "internalType": "address",
          "name": "admin",
          "type": "address"
        }
      ],
      "name": "addAdmin",
      "outputs": [],
      "stateMutability": "nonpayable",
      "type": "function"
    },
    {
      "inputs": [
        {
          "internalType": "address",
          "name": "",
          "type": "address"
        }
      ],
      "name": "getAverageRating",
      "outputs": [
        {
          "internalType": "uint256",
          "name": "",
          "type": "uint256"
        }
      ],
      "stateMutability": "pure",
      "type": "function"
    },
    {
      "inputs": [
        {
          "internalType": "address",
          "name": "wallet",
          "type": "address"
        }
      ],
      "name": "getProfile",
      "outputs": [
        {
          "components": [
            {
              "internalType": "uint256",
              "name": "userId",
              "type": "uint256"
            },
            {
              "internalType": "address",
              "name": "walletAddress",
              "type": "address"
            },
            {
              "internalType": "string",
              "name": "name",
              "type": "string"
            },
            {
              "internalType": "string",
              "name": "bio",
              "type": "string"
            },
            {
              "internalType": "bool",
              "name": "isVerified",
              "type": "bool"
            },
            {
              "internalType": "uint256",
              "name": "createdAt",
              "type": "uint256"
            }
          ],
          "internalType": "struct IUser.Profile",
          "name": "",
          "type": "tuple"
        }
      ],
      "stateMutability": "view",
      "type": "function"
    },
    {
      "inputs": [
        {
          "internalType": "uint256",
          "name": "userId",
          "type": "uint256"
        }
      ],
      "name": "getWalletByUserId",
      "outputs": [
        {
          "internalType": "address",
          "name": "",
          "type": "address"
        }
      ],
      "stateMutability": "view",
      "type": "function"
    },
    {
      "inputs": [
        {
          "internalType": "address",
          "name": "account",
          "type": "address"
        }
      ],
      "name": "isAdmin",
      "outputs": [
        {
          "internalType": "bool",
          "name": "",
          "type": "bool"
        }
      ],
      "stateMutability": "view",
      "type": "function"
    },
    {
      "inputs": [
        {
          "internalType": "address",
          "name": "wallet",
          "type": "address"
        }
      ],
      "name": "isRegistered",
      "outputs": [
        {
          "internalType": "bool",
          "name": "",
          "type": "bool"
        }
      ],
      "stateMutability": "view",
      "type": "function"
    },
    {
      "inputs": [],
      "name": "owner",
      "outputs": [
        {
          "internalType": "address",
          "name": "",
          "type": "address"
        }
      ],
      "stateMutability": "view",
      "type": "function"
    },
    {
      "inputs": [
        {
          "internalType": "string",
          "name": "name",
          "type": "string"
        },
        {
          "internalType": "string",
          "name": "bio",
          "type": "string"
        }
      ],
      "name": "register",
      "outputs": [],
      "stateMutability": "nonpayable",
      "type": "function"
    },
    {
      "inputs": [
        {
          "internalType": "address",
          "name": "admin",
          "type": "address"
        }
      ],
      "name": "removeAdmin",
      "outputs": [],
      "stateMutability": "nonpayable",
      "type": "function"
    },
    {
      "inputs": [],
      "name": "renounceOwnership",
      "outputs": [],
      "stateMutability": "nonpayable",
      "type": "function"
    },
    {
      "inputs": [
        {
          "internalType": "address",
          "name": "wallet",
          "type": "address"
        },
        {
          "internalType": "bool",
          "name": "verified",
          "type": "bool"
        }
      ],
      "name": "setVerified",
      "outputs": [],
      "stateMutability": "nonpayable",
      "type": "function"
    },
    {
      "inputs": [
        {
          "internalType": "address",
          "name": "newOwner",
          "type": "address"
        }
      ],
      "name": "transferOwnership",
      "outputs": [],
      "stateMutability": "nonpayable",
      "type": "function"
    },
    {
      "inputs": [
        {
          "internalType": "string",
          "name": "name",
          "type": "string"
        },
        {
          "internalType": "string",
          "name": "bio",
          "type": "string"
        }
      ],
      "name": "updateProfile",
      "outputs": [],
      "stateMutability": "nonpayable",
      "type": "function"
    }
  ],
  "bytecode": "0x60806040526001805534801561001457600080fd5b50338061003b57604051631e4fbdf760e01b81526000600482015260240160405180910390fd5b610044816100a4565b506004805460018181019092557f8a35acfbc15ff81a39ae7d344fd709f28e8600b4aa8c65c6b64bfe7fe36bd19b0180546001600160a01b031916339081179091556000908152600560205260409020805460ff191690911790556100f4565b600080546001600160a01b038381166001600160a01b0319831681178455604051919092169283917f8be0079c531659141344cd1fd0a4f28419497f9722a3daafe3b4186f6b6457e09190a35050565b610f0a806101036000396000f3fe608060405234801561001057600080fd5b50600436106100cf5760003560e01c80638340ea621161008c578063c3c5a54711610066578063c3c5a547146101e1578063c8b675221461020f578063c9d3cc6a14610231578063f2fde38b1461024457600080fd5b80638340ea621461017c5780638da5cb5b146101bd5780639cf5c613146101ce57600080fd5b80630f53a470146100d45780631785f53c146100fd57806324d7806c146101125780633ffbd47f1461014e5780637048027514610161578063715018a614610174575b600080fd5b6100e76100e2366004610aa3565b610257565b6040516100f49190610b0b565b60405180910390f35b61011061010b366004610aa3565b61041a565b005b61013e610120366004610aa3565b6001600160a01b031660009081526005602052604090205460ff1690565b60405190151581526020016100f4565b61011061015c366004610bcc565b6104d7565b61011061016f366004610aa3565b6106ce565b6101106107de565b6101a561018a366004610c38565b6000908152600360205260409020546001600160a01b031690565b6040516001600160a01b0390911681526020016100f4565b6000546001600160a01b03166101a5565b6101106101dc366004610c51565b6107f2565b61013e6101ef366004610aa3565b6001600160a01b0316600090815260026020526040902060050154151590565b61022361021d366004610aa3565b50600090565b6040519081526020016100f4565b61011061023f366004610bcc565b610906565b610110610252366004610aa3565b6109cc565b61029b6040518060c001604052806000815260200160006001600160a01b031681526020016060815260200160608152602001600015158152602001600081525090565b6001600160a01b03808316600090815260026020818152604092839020835160c08101855281548152600182015490951691850191909152908101805491928401916102e690610c8d565b80601f016020809104026020016040519081016040528092919081815260200182805461031290610c8d565b801561035f5780601f106103345761010080835404028352916020019161035f565b820191906000526020600020905b81548152906001019060200180831161034257829003601f168201915b5050505050815260200160038201805461037890610c8d565b80601f01602080910402602001604051908101604052809291908181526020018280546103a490610c8d565b80156103f15780601f106103c6576101008083540402835291602001916103f1565b820191906000526020600020905b8154815290600101906020018083116103d457829003601f168201915b5050509183525050600482015460ff161515602082015260059091015460409091015292915050565b610422610a0a565b6001600160a01b03811660009081526005602052604090205460ff166104815760405162461bcd60e51b815260206004820152600f60248201526e2ab9b2b91d103737ba1030b236b4b760891b60448201526064015b60405180910390fd5b6001600160a01b0381166000818152600560209081526040808320805460ff19169055519182527fe68d2c359a771606c400cf8b87000cf5864010363d6a736e98f5047b7bbe18e991015b60405180910390a250565b33600090815260026020526040902060050154156105375760405162461bcd60e51b815260206004820152601860248201527f557365723a20616c7265616479207265676973746572656400000000000000006044820152606401610478565b600180546000918261054883610cc7565b9190505590506040518060c00160405280828152602001336001600160a01b0316815260200186868080601f016020809104026020016040519081016040528093929190818152602001838380828437600092019190915250505090825250604080516020601f870181900481028201810190925285815291810191908690869081908401838280828437600092018290525093855250505060208083018290524260409384015233825260028082529183902084518155908401516001820180546001600160a01b0319166001600160a01b0390921691909117905591830151908201906106379082610d53565b506060820151600382019061064c9082610d53565b50608082015160048201805460ff191691151591909117905560a0909101516005909101556000818152600360209081526040918290208054336001600160a01b0319909116811790915591518381527f6f3bf3fa84e4763a43b3d23f9d79be242d6d5c834941ff4c1111b67469e1150c910160405180910390a25050505050565b6106d6610a0a565b6001600160a01b0381161580159061070757506001600160a01b03811660009081526005602052604090205460ff16155b6107495760405162461bcd60e51b81526020600482015260136024820152722ab9b2b91d1034b73b30b634b21030b236b4b760691b6044820152606401610478565b6004805460018082019092557f8a35acfbc15ff81a39ae7d344fd709f28e8600b4aa8c65c6b64bfe7fe36bd19b0180546001600160a01b0319166001600160a01b038416908117909155600081815260056020908152604091829020805460ff191685179055905192835290917fe68d2c359a771606c400cf8b87000cf5864010363d6a736e98f5047b7bbe18e991016104cc565b6107e6610a0a565b6107f06000610a37565b565b3360009081526005602052604090205460ff166108435760405162461bcd60e51b815260206004820152600f60248201526e2ab9b2b91d103737ba1030b236b4b760891b6044820152606401610478565b6001600160a01b03821660009081526002602052604081206005015490036108a45760405162461bcd60e51b8152602060048201526014602482015273155cd95c8e881b9bdd081c9959da5cdd195c995960621b6044820152606401610478565b6001600160a01b038216600081815260026020908152604091829020600401805460ff191685151590811790915591519182527fed3c0cf2b1ba472d6ece2e2e0b97840823bc20ea4d3323099f3e49bf887fcc46910160405180910390a25050565b33600090815260026020526040812060050154900361095e5760405162461bcd60e51b8152602060048201526014602482015273155cd95c8e881b9bdd081c9959da5cdd195c995960621b6044820152606401610478565b3360009081526002602081905260409091200161097c848683610e13565b5033600090815260026020526040902060030161099a828483610e13565b5060405133907fbe4ec58a792f909e102ee3d745d0c3b34a4d437a54d903c4db098d31c556422f90600090a250505050565b6109d4610a0a565b6001600160a01b0381166109fe57604051631e4fbdf760e01b815260006004820152602401610478565b610a0781610a37565b50565b6000546001600160a01b031633146107f05760405163118cdaa760e01b8152336004820152602401610478565b600080546001600160a01b038381166001600160a01b0319831681178455604051919092169283917f8be0079c531659141344cd1fd0a4f28419497f9722a3daafe3b4186f6b6457e09190a35050565b80356001600160a01b0381168114610a9e57600080fd5b919050565b600060208284031215610ab557600080fd5b610abe82610a87565b9392505050565b6000815180845260005b81811015610aeb57602081850181015186830182015201610acf565b506000602082860101526020601f19601f83011685010191505092915050565b602081528151602082015260018060a01b0360208301511660408201526000604083015160c06060840152610b4360e0840182610ac5565b90506060840151601f19848303016080850152610b608282610ac5565b9150506080840151151560a084015260a084015160c08401528091505092915050565b60008083601f840112610b9557600080fd5b50813567ffffffffffffffff811115610bad57600080fd5b602083019150836020828501011115610bc557600080fd5b9250929050565b60008060008060408587031215610be257600080fd5b843567ffffffffffffffff80821115610bfa57600080fd5b610c0688838901610b83565b90965094506020870135915080821115610c1f57600080fd5b50610c2c87828801610b83565b95989497509550505050565b600060208284031215610c4a57600080fd5b5035919050565b60008060408385031215610c6457600080fd5b610c6d83610a87565b915060208301358015158114610c8257600080fd5b809150509250929050565b600181811c90821680610ca157607f821691505b602082108103610cc157634e487b7160e01b600052602260045260246000fd5b50919050565b600060018201610ce757634e487b7160e01b600052601160045260246000fd5b5060010190565b634e487b7160e01b600052604160045260246000fd5b601f821115610d4e57600081815260208120601f850160051c81016020861015610d2b5750805b601f850160051c820191505b81811015610d4a57828155600101610d37565b5050505b505050565b815167ffffffffffffffff811115610d6d57610d6d610cee565b610d8181610d7b8454610c8d565b84610d04565b602080601f831160018114610db65760008415610d9e5750858301515b600019600386901b1c1916600185901b178555610d4a565b600085815260208120601f198616915b82811015610de557888601518255948401946001909101908401610dc6565b5085821015610e035787850151600019600388901b60f8161c191681555b5050505050600190811b01905550565b67ffffffffffffffff831115610e2b57610e2b610cee565b610e3f83610e398354610c8d565b83610d04565b6000601f841160018114610e735760008515610e5b5750838201355b600019600387901b1c1916600186901b178355610ecd565b600083815260209020601f19861690835b82811015610ea45786850135825560209485019460019092019101610e84565b5086821015610ec15760001960f88860031b161c19848701351681555b505060018560011b0183555b505050505056fea264697066735822122036deb83910132d4d99fbd4d331ecde55b04b8b998e6f604507f6447d881c177a64736f6c63430008140033",
  "linkReferences": {},
  "deployedLinkReferences": {}
}